:030000000208955E
:0C089500787FE4F6D8FD75810D020800A4
:10086700E4F50AF50BC3E50B9FE50A9E501FE4F577
:100877000CF50D050DE50D7002050CB4FBF5E50C47
:0E088700B404F0050BE50B70DC050A80D822E6
:10080000E5905407750800F50964034508700B75F9
:10081000A0067F19FE12086780E6E5096405450811
:100820006008E50964014508700575A00A80D1E5F6
:1008300009640245086018E509640645086010E58A
:1008400009640445086008E50964074508700C7FE1
:10085000147E0012086775A00980A57F1E7E001215
:070860000867E4F5A0809990
:00000001FF
